{
  "contractName": "Election",
  "abi": [
    {
      "inputs": [],
      "payable": false,
      "stateMutability": "nonpayable",
      "type": "constructor"
    },
    {
      "anonymous": false,
      "inputs": [
        {
          "indexed": true,
          "internalType": "uint256",
          "name": "_candidateId",
          "type": "uint256"
        }
      ],
      "name": "votedEvent",
      "type": "event"
    },
    {
      "constant": true,
      "inputs": [],
      "name": "candidate",
      "outputs": [
        {
          "internalType": "string",
          "name": "",
          "type": "string"
        }
      ],
      "payable": false,
      "stateMutability": "view",
      "type": "function"
    },
    {
      "constant": true,
      "inputs": [
        {
          "internalType": "uint256",
          "name": "",
          "type": "uint256"
        }
      ],
      "name": "candidates",
      "outputs": [
        {
          "internalType": "uint256",
          "name": "id",
          "type": "uint256"
        },
        {
          "internalType": "string",
          "name": "name",
          "type": "string"
        },
        {
          "internalType": "uint256",
          "name": "voteCount",
          "type": "uint256"
        }
      ],
      "payable": false,
      "stateMutability": "view",
      "type": "function"
    },
    {
      "constant": true,
      "inputs": [],
      "name": "candidatesCount",
      "outputs": [
        {
          "internalType": "uint256",
          "name": "",
          "type": "uint256"
        }
      ],
      "payable": false,
      "stateMutability": "view",
      "type": "function"
    },
    {
      "constant": true,
      "inputs": [
        {
          "internalType": "address",
          "name": "",
          "type": "address"
        }
      ],
      "name": "voters",
      "outputs": [
        {
          "internalType": "bool",
          "name": "",
          "type": "bool"
        }
      ],
      "payable": false,
      "stateMutability": "view",
      "type": "function"
    },
    {
      "constant": false,
      "inputs": [
        {
          "internalType": "string",
          "name": "_name",
          "type": "string"
        }
      ],
      "name": "addCandidate",
      "outputs": [],
      "payable": false,
      "stateMutability": "nonpayable",
      "type": "function"
    },
    {
      "constant": false,
      "inputs": [
        {
          "internalType": "uint256",
          "name": "_candidateId",
          "type": "uint256"
        }
      ],
      "name": "vote",
      "outputs": [],
      "payable": false,
      "stateMutability": "nonpayable",
      "type": "function"
    }
  ],
  "bytecode": "0x608060405234801561001057600080fd5b506100556040518060400160405280600481526020017f736169660000000000000000000000000000000000000000000000000000000081525061012660201b60201c565b6100996040518060400160405280600781526020017f6e657372696e650000000000000000000000000000000000000000000000000081525061012660201b60201c565b6100dd6040518060400160405280600681526020017f6b68616c6564000000000000000000000000000000000000000000000000000081525061012660201b60201c565b6101216040518060400160405280600781526020017f6d6f68616d65640000000000000000000000000000000000000000000000000081525061012660201b60201c565b610247565b6002600081548092919060010191905055506040518060600160405280600254815260200182815260200160008152506001600060025481526020019081526020016000206000820151816000015560208201518160010190805190602001906101919291906101a2565b506040820151816002015590505050565b828054600181600116156101000203166002900490600052602060002090601f016020900481019282601f106101e357805160ff1916838001178555610211565b82800160010185558215610211579182015b828111156102105782518255916020019190600101906101f5565b5b50905061021e9190610222565b5090565b61024491905b80821115610240576000816000905550600101610228565b5090565b90565b6106fe806102566000396000f3fe608060405234801561001057600080fd5b50600436106100625760003560e01c80630121b93f146100675780632d35a8a2146100955780633477ee2e146100b3578063462e91ec146101685780636c8381f814610223578063a3ec138d146102a6575b600080fd5b6100936004803603602081101561007d57600080fd5b8101908080359060200190929190505050610302565b005b61009d610422565b6040518082815260200191505060405180910390f35b6100df600480360360208110156100c957600080fd5b8101908080359060200190929190505050610428565b6040518084815260200180602001838152602001828103825284818151815260200191508051906020019080838360005b8381101561012b578082015181840152602081019050610110565b50505050905090810190601f1680156101585780820380516001836020036101000a031916815260200191505b5094505050505060405180910390f35b6102216004803603602081101561017e57600080fd5b810190808035906020019064010000000081111561019b57600080fd5b8201836020820111156101ad57600080fd5b803590602001918460018302840111640100000000831117156101cf57600080fd5b91908080601f016020809104026020016040519081016040528093929190818152602001838380828437600081840152601f19601f8201169050808301925050505050505091929192905050506104ea565b005b61022b610566565b6040518080602001828103825283818151815260200191508051906020019080838360005b8381101561026b578082015181840152602081019050610250565b50505050905090810190601f1680156102985780820380516001836020036101000a031916815260200191505b509250505060405180910390f35b6102e8600480360360208110156102bc57600080fd5b81019080803573ffffffffffffffffffffffffffffffffffffffff169060200190929190505050610604565b604051808215151515815260200191505060405180910390f35b600360003373ffffffffffffffffffffffffffffffffffffffff1673ffffffffffffffffffffffffffffffffffffffff16815260200190815260200160002060009054906101000a900460ff161561035957600080fd5b60008111801561036b57506002548111155b61037457600080fd5b6001600360003373ffffffffffffffffffffffffffffffffffffffff1673ffffffffffffffffffffffffffffffffffffffff16815260200190815260200160002060006101000a81548160ff0219169083151502179055506001600082815260200190815260200160002060020160008154809291906001019190505550807ffff3c900d938d21d0990d786e819f29b8d05c1ef587b462b939609625b684b1660405160405180910390a250565b60025481565b6001602052806000526040600020600091509050806000015490806001018054600181600116156101000203166002900480601f0160208091040260200160405190810160405280929190818152602001828054600181600116156101000203166002900480156104da5780601f106104af576101008083540402835291602001916104da565b820191906000526020600020905b8154815290600101906020018083116104bd57829003601f168201915b5050505050908060020154905083565b600260008154809291906001019190505550604051806060016040528060025481526020018281526020016000815250600160006002548152602001908152602001600020600082015181600001556020820151816001019080519060200190610555929190610624565b506040820151816002015590505050565b60008054600181600116156101000203166002900480601f0160208091040260200160405190810160405280929190818152602001828054600181600116156101000203166002900480156105fc5780601f106105d1576101008083540402835291602001916105fc565b820191906000526020600020905b8154815290600101906020018083116105df57829003601f168201915b505050505081565b60036020528060005260406000206000915054906101000a900460ff1681565b828054600181600116156101000203166002900490600052602060002090601f016020900481019282601f1061066557805160ff1916838001178555610693565b82800160010185558215610693579182015b82811115610692578251825591602001919060010190610677565b5b5090506106a091906106a4565b5090565b6106c691905b808211156106c25760008160009055506001016106aa565b5090565b9056fea265627a7a72315820a8e35dcbb4fbaf00f1a129952ebf08292c54f71621ca09928401df9ab7ac0e8564736f6c63430005100032",
  "source": "pragma solidity ^0.5.0;\r\n\r\ncontract Election {\r\n // Read/write candidate\r\n string public candidate;\r\n\r\n\r\n // Model a Candidate\r\n struct Candidate  {\r\n uint id;\r\n string name;\r\n uint voteCount;\r\n }\r\n\r\n// Read/write Candidates\r\n mapping(uint => Candidate) public candidates;\r\n\r\n // Store Candidates Count\r\n uint public candidatesCount;\r\n // Store accounts that have voted\r\nmapping(address => bool) public voters;\r\n // Constructor\r\n constructor() public {\r\n  addCandidate(\"saif\");\r\n  addCandidate(\"nesrine\");\r\n  addCandidate(\"khaled\");\r\n  addCandidate(\"mohamed\");\r\n\r\n }\r\n\r\n function addCandidate (string memory _name) public {\r\n candidatesCount ++;\r\n candidates[candidatesCount] = Candidate(candidatesCount, _name, 0);\r\n }\r\n\r\nfunction vote (uint _candidateId) public {\r\n // require that they haven't voted before\r\n require(!voters[msg.sender]);\r\n // require a valid candidate\r\n require(_candidateId > 0 && _candidateId <= candidatesCount);\r\n // record that voter has voted\r\n voters[msg.sender] = true;\r\n // update candidate vote Count\r\n candidates[_candidateId].voteCount ++;\r\n emit votedEvent(_candidateId);\r\n}\r\nevent votedEvent (\r\n uint indexed _candidateId\r\n );\r\n}\r\n",
  "sourcePath": "C:\\Users\\saifb\\Desktop\\blockchaine\\projetEthereum\\contracts\\Election.sol",
  "compiler": {
    "name": "solc",
    "version": "0.5.16+commit.9c3226ce.Emscripten.clang"
  },
  "schemaVersion": "3.4.3",
  "updatedAt": "2021-11-30T23:05:41.639Z",
  "networkType": "ethereum",
  "devdoc": {
    "methods": {}
  },
  "userdoc": {
    "methods": {}
  }
}